:100000000C942A000C9447000C9447000C94470071
:100010000C9491300C94C4300C94F7300C942A3129
:100020000C945D310C9490310C94C3310C94F631E6
:100030000C9447000C9447000C9447000C94470024
:100040000C9447000C9447000C9447000C94470014
:100050000C94470011241FBECFE5D8E0DEBFCDBF12
:1000600011E0A0E6B0E0EEE6F5E602C005900D92E4
:10007000A638B107D9F711E0A6E8B1E001C01D929A
:10008000A03BB107E1F70E94A3050C94B5320C9494
:100090000000EF92FF920F931F937B018C0120E0F1
:1000A00030E040E05FE40E94490388238CF0C801FF
:1000B000B70120E030E040E05FE40E94C1010E940F
:1000C000A9039B01AC01205030404040504806C07D
:1000D000C801B7010E94A9039B01AC01B901CA0183
:1000E0001F910F91FF90EF900895A0E0B0E0EBE733
:1000F000F0E00C947E32DC012B01FA019C919230ED
:1001000008F439C1EB018881823008F433C194309E
:1001100069F4843009F02FC111969C91119789815F
:10012000981709F428C1A2E2B1E025C1843009F48E
:1001300021C18230A9F4923009F01DC19A01AD01AC
:1001400088E0EA010990AE01E90109929E0181501F
:10015000C1F7E201898111969C918923818308C1AD
:10016000923009F407C112962D903C901397EB0141
:100170008A819B811496AD90BD90CD90DC901797AD
:10018000EC80FD800E811F819101281B390BB90184
:1001900037FF04C066277727621B730B6032710537
:1001A0000CF061C0121613066CF537014801062EDB
:1001B00004C096948794779467940A94D2F721E0C8
:1001C00030E040E050E004C0220F331F441F551FB1
:1001D0006A95D2F721503040404050402E213F21B7
:1001E00040235123211531054105510521F021E01E
:1001F00030E040E050E079018A01E628F72808293C
:1002000019293CC0232BD1F1260E371E350146019A
:10021000062E04C096948794779467940A94D2F734
:1002200021E030E040E050E004C0220F331F441FC3
:10023000551F6A95D2F721503040404050402A2146
:100240003B214C215D21211531054105510521F04E
:1002500021E030E040E050E059016A01A628B728CB
:10026000C828D9280BC0821593052CF01C01AA249C
:10027000BB24650103C0EE24FF24870111969C91E5
:10028000D20111968C91981709F445C0992339F041
:10029000A80197012A193B094C095D0906C0A6016E
:1002A00095012E193F09400B510B57FD08C01182D3
:1002B0003382228224833583468357831DC081E0A5
:1002C00081833382228288279927DC01821B930B4A
:1002D000A40BB50B84839583A683B7830DC0220F2F
:1002E000331F441F551F24833583468357838281E0
:1002F000938101979383828324813581468157813D
:10030000DA01C9010197A109B1098F5F9F4FAF4F72
:10031000BF4328F30BC0918333822282EA0CFB1C7B
:100320000C1D1D1DE482F5820683178383E0808304
:10033000248135814681578157FF1AC0C901AA27F8
:1003400097FDA095BA2F81709070A070B0705695EF
:10035000479537952795822B932BA42BB52B848318
:100360009583A683B7838281938101969383828349
:10037000DF0101C0D201CD01CDB7DEB7E2E10C94BF
:100380009A32A0E2B0E0E7ECF1E00C948A326983A3
:100390007A838B839C832D833E834F835887E9E048
:1003A000EE2EF12CEC0EFD1ECE010196B7010E943F
:1003B000D2048E010F5E1F4FCE010596B8010E9438
:1003C000D2048A8991E089278A8BC701B801AE01DE
:1003D000475E5F4F0E9475000E94FD03A096E6E015
:1003E0000C94A632A0E2B0E0E8EFF1E00C948A327F
:1003F00069837A838B839C832D833E834F835887C5
:10040000F9E0EF2EF12CEC0EFD1ECE010196B701A6
:100410000E94D2048E010F5E1F4FCE010596B801D7
:100420000E94D204C701B801AE01475E5F4F0E942F
:1004300075000E94FD03A096E6E00C94A632A0E2AF
:10044000B0E0E5E2F2E00C947E3269837A838B833C
:100450009C832D833E834F835887CE010196BE0136
:10046000675F7F4F0E94D204CE010596BE016F5E8A
:100470007F4F0E94D2049985923088F0898982301A
:10048000C8F0943019F4823051F404C0843029F457
:10049000923081F482E291E0C6C0923049F420E0CB
:1004A0009A858A89981321E02A87CE010996BBC0D4
:1004B000823049F420E09A858A89981321E02A8BBA
:1004C000CE014196B0C02D843E844F8458886D88FB
:1004D0007E888F88988CEE24FF248701AA24BB2471
:1004E000650140E050E060E070E0E0E0F0E0C10174
:1004F00081709070892BE9F0E60CF71C081D191D1E
:100500009A01AB012A0D3B1D4C1D5D1D80E090E062
:10051000A0E0B0E0E614F7040805190520F481E036
:1005200090E0A0E0B0E0BA01A901480F591F6A1F8E
:100530007B1FAA0CBB1CCC1CDD1C97FE08C081E0F5
:1005400090E0A0E0B0E0A82AB92ACA2ADB2A3196B6
:10055000E032F10549F0660C771C881C991C569412
:10056000479437942794C3CFFA85EA892B893C892D
:100570008B859C85280F391F2E5F3F4F17C0CA01FE
:1005800081709070892B61F016950795F794E79428
:1005900080E090E0A0E0B0E8E82AF92A0A2B1B2BC3
:1005A00076956795579547952F5F3F4F77FDE7CF36
:1005B0000CC0440F551F661F771F17FD4160EE0CDE
:1005C000FF1C001F111F21503040403090E05907A0
:1005D00090E0690790E4790760F32B8F3C8FDB0193
:1005E000CA018F779070A070B07080349105A1051A
:1005F000B10561F447FD0AC0E114F10401051105DC
:1006000029F0405C5F4F6F4F7F4F40781A8EFE1786
:1006100011F081E08A8F4D8F5E8F6F8F78A383E01A
:10062000898FCE0149960E94FD03A096E2E10C94C9
:100630009A32A8E1B0E0EFE1F3E00C948A326983EA
:100640007A838B839C832D833E834F83588789E0F5
:10065000E82EF12CEC0EFD1ECE010196B7010E9492
:10066000D2048E010F5E1F4FCE010596B8010E9485
:10067000D2048985823040F08989823028F0C70110
:10068000B8010E944A0501C08FEF6896E6E00C941D
:10069000A632A8E1B0E0EFE4F3E00C948A3269837B
:1006A0007A838B839C832D833E834F83588789E095
:1006B000E82EF12CEC0EFD1ECE010196B7010E9432
:1006C000D2048E010F5E1F4FCE010596B8010E9425
:1006D000D2048985823040F08989823028F0C701B0
:1006E000B8010E944A0501C08FEF6896E6E00C94BD
:1006F000A632A8E1B0E0EFE7F3E00C948A32698318
:100700007A838B839C832D833E834F83588789E034
:10071000E82EF12CEC0EFD1ECE010196B7010E94D1
:10072000D2048E010F5E1F4FCE010596B8010E94C4
:10073000D2048985823040F08989823028F0C7014F
:10074000B8010E944A0501C081E06896E6E00C9479
:10075000A632ACE0B0E0EFEAF3E00C948E326983AD
:100760007A838B839C83CE010196BE016B5F7F4FA2
:100770000E94D2048D81823061F1823050F1843048
:1007800021F48E81882351F12EC02F81388537FDC9
:1007900020C06E812F3131051CF06623F9F023C093
:1007A0008EE190E0821B930B29853A854B855C8511
:1007B00004C056954795379527958A95D2F76623B5
:1007C000B1F050954095309521953F4F4F4F5F4F79
:1007D0000EC020E030E040E050E009C02FEF3FEFD6
:1007E0004FEF5FE704C020E030E040E050E8B9019F
:1007F000CA012C96E2E00C94AA32DF92EF92FF92AB
:100800000F931F93FC01E480F58006811781D1804E
:100810008081823048F480E090E0A0E1B0E0E82AF6
:10082000F92A0A2B1B2BA5C0843009F49FC0823003
:1008300021F4EE24FF24870105C0E114F104010531
:10084000110519F4E0E0F0E096C0628173819FEF3A
:10085000623879070CF05BC022E83FEF261B370BAC
:100860002A3131052CF020E030E040E050E02AC091
:10087000B801A701022E04C0769567955795479554
:100880000A94D2F781E090E0A0E0B0E004C0880FC5
:10089000991FAA1FBB1F2A95D2F70197A109B10979
:1008A0008E219F21A023B1230097A105B10521F03E
:1008B00081E090E0A0E0B0E09A01AB01282B392B59
:1008C0004A2B5B2BDA01C9018F779070A070B07052
:1008D00080349105A105B10539F427FF09C0205CDA
:1008E0003F4F4F4F5F4F04C0215C3F4F4F4F5F4F13
:1008F000E0E0F0E02030A0E03A07A0E04A07A0E402
:100900005A0710F0E1E0F0E079018A0127C0603871
:10091000710564F5FB01E158FF4FD801C7018F77DE
:100920009070A070B07080349105A105B10539F4C4
:10093000E7FE0DC080E490E0A0E0B0E004C08FE3EB
:1009400090E0A0E0B0E0E80EF91E0A1F1B1F17FFA1
:1009500005C016950795F794E794319687E01695AC
:100960000795F794E7948A95D1F705C0EE24FF2404
:100970008701EFEFF0E06E2F679566276795902F60
:100980009F77D794DD24D7948E2F8695492F462BB9
:10099000582F5D29B701CA011F910F91FF90EF9069
:1009A000DF900895FC01DB01408151812281622F9B
:1009B0006F7770E0221F2227221F9381892F880FD3
:1009C000822B282F30E0991F9927991F11969C930D
:1009D000119721153105A9F54115510561057105DD
:1009E00011F482E037C082E89FEF13969C938E93B8
:1009F00012979A01AB0167E0220F331F441F551F66
:100A00006A95D1F783E08C930DC0220F331F441FEA
:100A1000551F12968D919C911397019713969C9355
:100A20008E931297203080E0380780E0480780E4FA
:100A3000580758F314962D933D934D935C93179755
:100A400008952F3F310579F4411551056105710570
:100A500019F484E08C93089564FF03C081E08C93C3
:100A600012C01C9210C02F57304013963C932E9307
:100A7000129783E08C9387E0440F551F661F771F02
:100A80008A95D1F7706414964D935D936D937C9322
:100A9000179708951F93DC01FB019C91923008F495
:100AA00047C08081823008F443C0943051F41196DD
:100AB0001C91843099F58181682F70E0611B710968
:100AC0003FC0843021F0923031F48230B9F181811D
:100AD000882389F12DC011961C9111978230F1F075
:100AE00081811817D9F412962D913C911397828128
:100AF00093818217930794F028173907BCF0149656
:100B00008D919D910D90BC91A02D248135814681C0
:100B10005781281739074A075B0718F4112341F05A
:100B20000AC082179307A407B50740F4112319F0F0
:100B300061E070E005C06FEF7FEF02C060E070E041
:100B4000CB011F910895DF93CF93CDB7DEB7CE5081
:100B5000D1400FB6F894DEBF0FBECDBF9E012F5F10
:100B60003F4FC352DF4F39832883CD5DD04087E6A6
:100B700090E0C152DF4F99838883CF5DD04091E1EF
:100B8000CF51DF4F9883C15ED040C152DF4FE88123
:100B9000F981CF5DD0400080C152DF4F288139817B
:100BA000CF5DD0402F5F3F4FC152DF4F3983288345
:100BB000CF5DD040C352DF4FE881F981CD5DD04099
:100BC0000082C352DF4F28813981CD5DD0402F5F35
:100BD0003F4FC352DF4F39832883CD5DD040CF5183
:100BE000DF4F3881C15ED0403150CF51DF4F388365
:100BF000C15ED040CF51DF4F8881C15ED040882395
:100C000021F6FE017296CE51DF4FF983E883C25E72
:100C1000D04028E730E0CC51DF4F39832883C45ED1
:100C2000D04031E1CA51DF4F3883C65ED040CC514D
:100C3000DF4FE881F981C45ED0400080CC51DF4FA6
:100C400028813981C45ED0402F5F3F4FCC51DF4FA8
:100C500039832883C45ED040CE51DF4FE881F981CB
:100C6000C25ED0400082CE51DF4F28813981C25E02
:100C7000D0402F5F3F4FCE51DF4F39832883C25E74
:100C8000D040CA51DF4F3881C65ED0403150CA5182
:100C9000DF4F3883C65ED040CA51DF4F8881C65EC1
:100CA000D040882321F6FE01B396C951DF4FF98366
:100CB000E883C75ED04029E830E0C751DF4F398371
:100CC0002883C95ED04031E1C551DF4F3883CB5E08
:100CD000D040C751DF4FE881F981C95ED040008024
:100CE000C751DF4F28813981C95ED0402F5F3F4F08
:100CF000C751DF4F39832883C95ED040C951DF4FC8
:100D0000E881F981C75ED0400082C951DF4F288158
:100D10003981C75ED0402F5F3F4FC951DF4F3983C4
:100D20002883C75ED040C551DF4F3881CB5ED040AD
:100D30003150C551DF4F3883CB5ED040C551DF4FB6
:100D40008881CB5ED040882321F6FE01F496C45101
:100D5000DF4FF983E883CC5ED0402AE930E0C2510E
:100D6000DF4F39832883CE5ED04031E1C051DF4F61
:100D70003883C05FD040C251DF4FE881F981CE5E39
:100D8000D0400080C251DF4F28813981CE5ED040F3
:100D90002F5F3F4FC251DF4F39832883CE5ED04053
:100DA000C451DF4FE881F981CC5ED0400082C4514C
:100DB000DF4F28813981CC5ED0402F5F3F4FC45137
:100DC000DF4F39832883CC5ED040C051DF4F38815C
:100DD000C05FD0403150C051DF4F3883C05FD0403A
:100DE000C051DF4F8881C05FD040882321F6CE01FB
:100DF0008B5B9F4FCF50DF4F99838883C15FD0407B
:100E0000EBEAF0E0CD50DF4FF983E883C35FD040D9
:100E1000F1E1CB50DF4FF883C55FD040CD50DF4FBD
:100E2000E881F981C35FD0400080CD50DF4F288139
:100E30003981C35FD0402F5F3F4FCD50DF4F3983A3
:100E40002883C35FD040CF50DF4FE881F981C15F75
:100E5000D0400082CF50DF4F28813981C15FD04020
:100E60002F5F3F4FCF50DF4F39832883C15FD04082
:100E7000CB50DF4F3881C55FD0403150CB50DF4F72
:100E80003883C55FD040CB50DF4F8881C55FD040ED
:100E9000882321F6CE018A5A9F4FCA50DF4F99838B
:100EA0008883C65FD040ECEBF0E0C850DF4FF98399
:100EB000E883C85FD040F1E1C650DF4FF883CA5FD6
:100EC000D040C850DF4FE881F981C85FD040008032
:100ED000C850DF4F28813981C85FD0402F5F3F4F16
:100EE000C850DF4F39832883C85FD040CA50DF4FD6
:100EF000E881F981C65FD0400082CA50DF4F288167
:100F00003981C65FD0402F5F3F4FCA50DF4F3983D2
:100F10002883C65FD040C650DF4F3881CA5FD040BB
:100F20003150C650DF4F3883CA5FD040C650DF4FC4
:100F30008881CA5FD040882321F6CE0189599F4F0E
:100F4000C550DF4F99838883CB5FD040EDECF0E054
:100F5000C350DF4FF983E883CD5FD040F1E1C1504A
:100F6000DF4FF883CF5FD040C350DF4FE881F98176
:100F7000CD5FD0400080C350DF4F28813981CD5FE5
:100F8000D0402F5F3F4FC350DF4F39832883CD5F61
:100F9000D040C550DF4FE881F981CB5FD04000825F
:100FA000C550DF4F28813981CB5FD0402F5F3F4F45
:100FB000C550DF4F39832883CB5FD040C150DF4F0E
:100FC0003881CF5FD0403150C150DF4F3883CF5F81
:100FD000D040C150DF4F8881CF5FD040882321F6B9
:100FE000CE0188589F4FC050DF4F99838883C050EF
:100FF000D140EEEDF0E0CE5FDE4FF983E883C250E2
:10100000D140F1E1CC5FDE4FF883C450D140CE5FD8
:10101000DE4FE881F981C250D1400080CE5FDE4FC3
:1010200028813981C250D1402F5F3F4FCE5FDE4FC4
:1010300039832883C250D140C050DF4FE881F98105
:10104000C050D1400082C050DF4F28813981C0504C
:10105000D1402F5F3F4FC050DF4F39832883C050AE
:10106000D140CC5FDE4F3881C450D1403150CC5F8D
:10107000DE4F3883C450D140CC5FDE4F8881C450EE
:10108000D140882321F6CE0187579F4FCB5FDE4F9B
:1010900099838883C550D140EFEEF0E0C95FDE4F01
:1010A000F983E883C750D140F1E1C75FDE4FF88391
:1010B000C950D140C95FDE4FE881F981C750D140A6
:1010C0000080C95FDE4F28813981C750D1402F5F32
:1010D0003F4FC95FDE4F39832883C750D140CB5F74
:1010E000DE4FE881F981C550D1400082CB5FDE4FF1
:1010F00028813981C550D1402F5F3F4FCB5FDE4FF4
:1011000039832883C550D140C75FDE4F3881C9502D
:10111000D1403150C75FDE4F3883C950D140C75FDF
:10112000DE4F8881C950D140882321F6CE018656F2
:101130009F4FC65FDE4F99838883CA50D140E0E05D
:10114000F1E0C45FDE4FF983E883CC50D140F1E198
:10115000C25FDE4FF883CE50D140C45FDE4FE881DE
:10116000F981CC50D1400080C45FDE4F28813981A5
:10117000CC50D1402F5F3F4FC45FDE4F398328836F
:10118000CC50D140C65FDE4FE881F981CA50D140D2
:101190000082C65FDE4F28813981CA50D1402F5F5F
:1011A0003F4FC65FDE4F39832883CA50D140C25FAC
:1011B000DE4F3881CE50D1403150C25FDE4F388390
:1011C000CE50D140C25FDE4F8881CE50D1408823BF
:1011D00021F682E06FEF0E948D1F83E060E041E026
:1011E0000E947D1D83E061E041E00E947D1D83E05F
:1011F00062E041E00E947D1D81E060E041E00E94EC
:101200007D1D81E061E041E00E947D1D81E062E0A2
:1012100041E00E947D1D81E063E040E00E947D1D71
:1012200081E064E040E00E947D1D81E06FEF0E945C
:10123000D11F81E067E041E00E947D1D81E067E011
:1012400040E00E94851E82E391E060E00E949927C1
:101250008AE391E061E00E9499270E94FD210E94AB
:10126000E5260E94712A8BE39DE161E00E946F30C8
:101270000E941B210E94372180938C01809189015B
:101280008C3338F01092890180918A018F5F8093AE
:101290008A0180918A018C3338F010928A01809102
:1012A0002A018F5F80932A0180912A018C30F9F402
:1012B00080918A018823D9F4809189018823B9F427
:1012C000809190018823A9F480918E01813019F4D6
:1012D00010928E0108C081E080938E0180912B01D5
:1012E0008F5F80932B0181E08093900102C0109268
:1012F000900180912A018D3018F081E080932A01BD
:1013000080912B01813208F077C080912B018E31C2
:10131000A9F480918B01813089F480917E019091B4
:101320007F0183709070009749F481E080932B01D6
:1013300080918B018F5F80938B015EC080912B0128
:101340008D31A9F480918B01813089F480917E01E7
:1013500090917F0183709070009749F081E08093B5
:101360002B0180918B018F5F80938B0145C0809111
:101370002B018F31C9F480918B01833061F0809112
:101380008B01853041F080918B01883021F0809174
:101390008B018A3049F481E080932B0180918B018D
:1013A0008F5F80938B0128C080912B01803221F5C3
:1013B00080918B018823C1F080918B018230A1F054
:1013C00080918B01843081F080918B01863061F0B7
:1013D00080918B01873041F080918B01893021F021
:1013E00080918B018B3041F481E080932B018091BF
:1013F0008B018F5F80938B0180918B018C3058F033
:1014000010928B0180917E0190917F0101969093C3
:101410007F0180937E0180919501813009F04FC05A
:1014200080E06FE00E948F2680E00E947F259091EF
:101430002C0180912A019817C1F490912D0180917F
:101440008A01981791F490918E01809196019817D6
:1014500061F490912E0180918901981731F481E017
:1014600067E041E00E94851E2AC090912C01809186
:101470002A01981791F490912D0180918A01981773
:1014800060F490918E0180919601981731F49091BB
:101490002E0180918901891720F480918C01853477
:1014A00071F481E067E040E00E94851E1092950192
:1014B00080E06FE00E948F2680E20E947F2580916D
:1014C0009901813009F060C081E06FE00E948F26B1
:1014D00081E00E947F2580919C018823E9F580911D
:1014E0009B01882349F080919B01815080939B014F
:1014F0008BE380939C0130C080919A01882361F036
:1015000080919A01815080939A018BE380939B0193
:101510008BE380939C0120C080919401882361F427
:1015200081E067E041E00E94851E8AE080939C0193
:1015300081E08093940110C081E067E040E00E9468
:10154000851E1092990181E06FE00E948F2680E253
:101550000E947F251092940180918C018534A1F422
:1015600080919401813081F481E067E040E00E9445
:10157000851E1092990181E06FE00E948F2680E223
:101580000E947F251092940180918D01882309F09B
:1015900015C10E94272980912A018A30A8F480E091
:1015A00062E00E948F2680E30E947F2580912A01BD
:1015B000882F90E0A0E0B0E0BC01CD010E94CB27D5
:1015C0008AE30E947F2511C080E062E00E948F269E
:1015D00080912A01882F90E0A0E0B0E0BC01CD010D
:1015E0000E94CB278AE30E947F2580918A018A305E
:1015F000A8F480E065E00E948F2680E30E947F25AA
:1016000080918A01882F90E0A0E0B0E0BC01CD017C
:101610000E94CB278AE30E947F2511C080E065E00D
:101620000E948F2680918A01882F90E0A0E0B0E090
:10163000BC01CD010E94CB278AE30E947F258091C7
:1016400089018A3048F580E068E00E948F2680E3B7
:101650000E947F2580918901882F90E0A0E0B0E072
:10166000BC01CD010E94CB2780E690E00E94BC2601
:1016700042E751E080918E01282F30E0C901880FA8
:10168000991F820F931F840F951F0E94BC2682E62C
:1016900090E00E94BC2625C080E068E00E948F2672
:1016A00080918901882F90E0A0E0B0E0BC01CD01DD
:1016B0000E94CB2780E690E00E94BC2642E751E0E2
:1016C00080918E01282F30E0C901880F991F820F69
:1016D000931F840F951F0E94BC2682E690E00E9413
:1016E000BC2680912B018A3058F581E063E00E948E
:1016F0008F2680E30E947F2580912B01882F90E028
:10170000A0E0B0E0BC01CD010E94CB2722E431E093
:1017100080918B01882F90E0880F991F880F991F67
:10172000820F931F0E94BC2680917E0190917F01C1
:10173000CC01A0E0B0E0BC01CD010E94CB2727C0C6
:1017400081E063E00E948F2680912B01882F90E03A
:10175000A0E0B0E0BC01CD010E94CB2722E431E043
:1017600080918B01882F90E0880F991F880F991F17
:10177000820F931F0E94BC2680917E0190917F0171
:10178000CC01A0E0B0E0BC01CD010E94CB2780914C
:101790008C01882309F46ECD80918C01882F90E014
:1017A0008D34910509F066CD0E94E526CE010196A3
:1017B0000E94BC2681E080938D015CCD80918D01DB
:1017C000813009F065C00E94272980918C0188230F
:1017D00009F450CD80918C01E82FF0E0C552DF4F25
:1017E000F983E883CB5DD040C552DF4F2881398132
:1017F000CB5DD0402C34310509F43FC0C552DF4FDA
:1018000088819981CB5DD0408D34910554F4C552C7
:10181000DF4FE881F981CB5DD040E534F105C9F0B7
:1018200029CDC552DF4F28813981CB5DD0402D3481
:10183000310551F0C552DF4F88819981CB5DD04091
:101840008235910581F016CD0E94E52610928D011A
:1018500011CD0E94E526CE0142960E94BC2682E070
:1018600080938D0107CD0E94E526CE01C4960E948B
:10187000BC2684E080938D01FDCC0E94E526CE013C
:1018800088589F4F0E94BC2688E080938D01F2CC3F
:1018900080918D01823009F070C00E9427298091CB
:1018A0008C01882309F4E6CC80918C01E82FF0E0CC
:1018B000C752DF4FF983E883C95DD040C752DF4F7D
:1018C00028813981C95DD0402C343105D1F1C7520E
:1018D000DF4F88819981C95DD0408D34910554F4E2
:1018E000C752DF4FE881F981C95DD040E534F10589
:1018F00091F1C0CCC752DF4F28813981C95DD040FA
:101900002D34310551F0C752DF4F88819981C95D6F
:10191000D0408235910559F0ADCC0E94E526CE012C
:1019200001960E94BC2681E080938D01A3CC0E9489
:10193000E526CE0183960E94BC2683E080938D012C
:1019400099CC0E94E526CE0183960E94BC2683E0B6
:1019500080938D018FCC0E94E52680912A0180938F
:101960002F0180918A0180933001809189018093B9
:1019700031018EE080938D017DCC80918D0183308B
:1019800009F064C00E94272980918C01882309F402
:1019900071CC80918C01E82FF0E0C952DF4FF983C0
:1019A000E883C75DD040C952DF4F28813981C75DC8
:1019B000D0402C343105D1F1C952DF4F8881998153
:1019C000C75DD0408D34910554F4C952DF4FE88192
:1019D000F981C75DD040E534F10591F14BCCC95296
:1019E000DF4F28813981C75DD0402D34310551F05A
:1019F000C952DF4F88819981C75DD04082359105FA
:101A000059F038CC0E94E526CE0101960E94BC26F2
:101A100081E080938D012ECC0E94E526CE01429676
:101A20000E94BC2682E080938D0124CC0E94E52692
:101A3000CE0142960E94BC2682E080938D011ACC92
:101A40000E94E5268CE080938D0114CC80918D015D
:101A5000843009F060C00E94272980918C0188237E
:101A600009F408CC80918C01E82FF0E0CB52DF4FD5
:101A7000F983E883C55DD040CB52DF4F288139819F
:101A8000C55DD0402C343105B1F1CB52DF4F888198
:101A90009981C55DD0408D34910554F4CB52DF4F10
:101AA000E881F981C55DD040E534F10571F1E2CB03
:101AB000CB52DF4F28813981C55DD0402D343105AF
:101AC00051F0CB52DF4F88819981C55DD04082357E
:101AD000910531F0CFCB0E94E52610928D01CACB43
:101AE0000E94E526CE018B5B9F4F0E94BC2685E0BD
:101AF00080938D01BFCB0E94E526CE0101960E9406
:101B0000BC2681E080938D01B5CB0E94E5268DE057
:101B100080938D01AFCB80918D01853009F065C038
:101B20000E94272980918C01882309F4A3CB8091FE
:101B30008C01E82FF0E0CD52DF4FF983E883C35DDD
:101B4000D040CD52DF4F28813981C35DD0402C3445
:101B50003105B1F1CD52DF4F88819981C35DD0400D
:101B60008D34910554F4CD52DF4FE881F981C35D86
:101B7000D040E534F10571F17DCBCD52DF4F2881A6
:101B80003981C35DD0402D34310551F0CD52DF4F46
:101B900088819981C35DD0408235910531F06ACB4F
:101BA0000E94E52610928D0165CB0E94E526CE01AC
:101BB00088589F4F0E94BC2688E080938D015ACBA5
:101BC0000E94E526CE01C4960E94BC2684E0809344
:101BD0008D0150CB0E94E526CE018A5A9F4F0E946C
:101BE000BC2686E080938D0145CB80918D018630A7
:101BF00009F067C00E94272980918C01882309F48D
:101C000039CB80918C01E82FF0E0CF52DF4FF98380
:101C1000E883C15DD040CF52DF4F28813981C15D5B
:101C2000D0402C343105E1F1CF52DF4F88819981CA
:101C3000C15DD0408D34910554F4CF52DF4FE8811F
:101C4000F981C15DD040E534F105A9F113CBCF5244
:101C5000DF4F28813981C15DD0402D34310551F0ED
:101C6000CF52DF4F88819981C15DD0408235910587
:101C700061F000CB0E94E526CE018B5B9F4F0E9456
:101C8000BC2685E080938D01F5CA0E94E526CE0131
:101C900089599F4F0E94BC2687E080938D01EACA34
:101CA0000E94E526CE0189599F4F0E94BC2687E0FD
:101CB00080938D01DFCA0E94E5268BE080938D0121
:101CC000D9CA80918D01873009F066C080918C015E
:101CD000882309F4CFCA80918C01E82FF0E0C1532A
:101CE000DF4FF983E883CF5CD040C153DF4F2881B9
:101CF0003981CF5CD0402C343105E1F1C153DF4F45
:101D000088819981CF5CD0408D34910554F4C153C2
:101D1000DF4FE881F981CF5CD040E534F105A9F1CE
:101D2000A9CAC153DF4F28813981CF5CD0402D34FF
:101D3000310551F0C153DF4F88819981CF5CD0408C
:101D40008235910561F096CA0E94E526CE018B5B33
:101D50009F4F0E94BC2685E080938D018BCA0E9414
:101D6000E526CE018A5A9F4F0E94BC2686E08093CA
:101D70008D0180CA0E94E526CE018A5A9F4F0E949B
:101D8000BC2686E080938D0175CA0E94E5261092DC
:101D90008D01109295016ECA80918D01883009F0F5
:101DA00065C00E94272980918C01882309F462CAAA
:101DB00080918C01E82FF0E0C353DF4FF983E88373
:101DC000CD5CD040C353DF4F28813981CD5CD040FA
:101DD0002C343105A9F1C353DF4F88819981CD5C43
:101DE000D0408D34910554F4C353DF4FE881F9811D
:101DF000CD5CD040E534F10571F13CCAC353DF4FEF
:101E000028813981CD5CD0402D34310551F0C35348
:101E1000DF4F88819981CD5CD0408235910531F0CA
:101E200029CA0E94E52610928D0124CA0E94E52647
:101E3000CE0101960E94BC2681E080938D011ACAD2
:101E40000E94E526CE018B5B9F4F0E94BC2685E059
:101E500080938D010FCA0E94E526CE0187579F4FC0
:101E60000E94BC2689E080938D0104CA80918D0177
:101E7000893009F067C00E94272980918C0188234E
:101E800009F4F8C980918C01E82FF0E0C553DF4FC9
:101E9000F983E883CB5CD040C553DF4F288139817B
:101EA000CB5CD0402C343105E1F1C553DF4F888144
:101EB0009981CB5CD0408D34910554F4C553DF4FEC
:101EC000E881F981CB5CD040E534F105A9F1D2C9B4
:101ED000C553DF4F28813981CB5CD0402D3431058B
:101EE00051F0C553DF4F88819981CB5CD04082355A
:101EF000910561F0BFC90E94E526CE0188589F4F29
:101F00000E94BC2688E080938D01B4C90E94E5261A
:101F1000CE0186569F4F0E94BC268AE080938D0199
:101F2000A9C90E94E526CE0186569F4F0E94BC2675
:101F30008AE080938D019EC90E94E5268FE0809300
:101F40008D0198C980918D018A3009F06CC0809113
:101F50008C01882309F48EC980918C01E82FF0E070
:101F6000C753DF4FF983E883C95CD040C753DF4FC5
:101F700028813981C95CD0402C343105E1F1C75347
:101F8000DF4F88819981C95CD0408D34910554F42C
:101F9000C753DF4FE881F981C95CD040E534F105D2
:101FA000A9F168C9C753DF4F28813981C95CD04086
:101FB0002D34310551F0C753DF4F88819981C95CB9
:101FC000D0408235910561F055C90E94E526CE01C9
:101FD00088589F4F0E94BC2688E080938D014AC993
:101FE0000E94E526CE0187579F4F0E94BC2689E0BC
:101FF00080938D013FC90E94E526CE0187579F4FF0
:102000000E94BC2689E080938D0134C90E94E52698
:10201000CE0188589F4F0E94BC2688E080938D0196
:102020001092990127C980918D018B3009F04BC323
:102030000E94AF2980919201882309F09FC080916E
:102040002C018A30A8F480E062E00E948F2680E3B1
:102050000E947F2580912C01882F90E0A0E0B0E0C5
:10206000BC01CD010E94CB278AE30E947F2511C0CD
:1020700080E062E00E948F2680912C01882F90E002
:10208000A0E0B0E0BC01CD010E94CB278AE30E9412
:102090007F2580912D018A30A8F480E065E00E94C0
:1020A0008F2680E30E947F2580912D01882F90E06C
:1020B000A0E0B0E0BC01CD010E94CB278AE30E94E2
:1020C0007F2511C080E065E00E948F2680912D0160
:1020D000882F90E0A0E0B0E0BC01CD010E94CB27AA
:1020E0008AE30E947F2580912E018A3020F580E0CE
:1020F00068E00E948F2680E30E947F2580912E0158
:10210000882F90E0A0E0B0E0BC01CD010E94CB2779
:1021100080E20E947F2548E751E080919601282FB8
:1021200030E0C901880F991F820F931F840F951FFC
:102130000E94BC2620C080E068E00E948F2680912B
:102140002E01882F90E0A0E0B0E0BC01CD010E94FC
:10215000CB2780E20E947F2548E751E080919601DD
:10216000282F30E0C901880F991F820F931F840F19
:10217000951F0E94BC2681E0809392018091970177
:10218000882309F0A6C080E063E00E948F2680913A
:102190008C01882309F46EC880918C01E82FF0E04F
:1021A000C953DF4FF983E883C75CD040C953DF4F81
:1021B00028813981C75CD0402C34310509F44FC0E7
:1021C000C953DF4F88819981C75CD0408D34910518
:1021D000ACF4C953DF4FE881F981C75CD040E434E7
:1021E000F10509F453C0C953DF4F28813981C75C19
:1021F000D0402534310509F459C03CC8C953DF4FDC
:1022000088819981C75CD0408235910511F1C9530D
:10221000DF4FE881F981C75CD040E535F10531F148
:10222000C953DF4F28813981C75CD0402D34310537
:1022300009F020C80E94E526CE018A5A9F4F0E94CD
:10224000BC261092970186E080938D011092920136
:1022500011C881E080939701109292010BC883E02E
:1022600080939701109292010C943A0980912C016D
:102270008F5F80932C0180912C018D3019F481E0C7
:1022800080932C01109292010C943A0980912C01B8
:10229000813019F48DE080932C0180912C018150C4
:1022A00080932C01109292010C943A090E94E52629
:1022B000CE018A5A9F4F0E94BC261092970186E059
:1022C00080938D0181E080939501109292010C948E
:1022D0003A0980919701813009F0A9C080E066E059
:1022E0000E948F2680918C01882311F40C943A0966
:1022F00080918C01E82FF0E0CB53DF4FF983E88326
:10230000C55CD040CB53DF4F28813981C55CD040BC
:102310002C34310509F453C0CB53DF4F88819981A8
:10232000C55CD0408D349105B4F4CB53DF4FE881C8
:10233000F981C55CD040E434F10509F455C0CB53B4
:10234000DF4F28813981C55CD0402534310509F43F
:102350005BC00C943A09CB53DF4F88819981C55CEF
:10236000D0408235910521F1CB53DF4FE881F981CF
:10237000C55CD040E535F10541F1CB53DF4F2881F5
:102380003981C55CD0402D34310511F00C943A09E7
:102390000E94E526CE018A5A9F4F0E94BC261092C9
:1023A000970186E080938D01109292010C943A0976
:1023B00082E080939701109292010C943A09109256
:1023C0009701109292010C943A0980912D018F5F30
:1023D00080932D0180912D018C3311F410922D01E9
:1023E000109292010C943A0980912D01882319F4DE
:1023F0008CE380932D0180912D01815080932D01DC
:10240000109292010C943A090E94E526CE018A5A54
:102410009F4F0E94BC261092970186E080938D0109
:1024200081E080939501109292010C943A09809179
:102430009701823009F0AAC080E069E00E948F26EF
:1024400080918C01882311F40C943A0980918C01BD
:10245000E82FF0E0CD53DF4FF983E883C35CD04031
:10246000CD53DF4F28813981C35CD0402C343105F6
:1024700009F453C0CD53DF4F88819981C35CD040AC
:102480008D349105B4F4CD53DF4FE881F981C35CFD
:10249000D040E434F10509F456C0CD53DF4F288114
:1024A0003981C35CD0402534310509F45CC00C94FB
:1024B0003A09CD53DF4F88819981C35CD040823582
:1024C000910521F1CD53DF4FE881F981C35CD04004
:1024D000E535F10549F1CD53DF4F28813981C35CE2
:1024E000D0402D34310511F00C943A090E94E526B4
:1024F000CE018A5A9F4F0E94BC261092970186E017
:1025000080938D01109292010C943A0983E080939C
:102510009701109292010C943A0981E080939701FF
:10252000109292010C943A0980912E018F5F809352
:102530002E0180912E018C3311F410922E011092F5
:1025400092010C943A0980912E01882319F48CE3AE
:1025500080932E0180912E01815080932E01109244
:1025600092010C943A090E94E526CE018A5A9F4FA7
:102570000E94BC261092970186E080938D0181E035
:1025800080939501109292010C943A0980919701E1
:10259000833011F00C943A0980E06BE00E948F26A2
:1025A00080918C01882311F40C943A0980918C015C
:1025B000E82FF0E0CF53DF4FF983E883C15CD040D0
:1025C000CF53DF4F28813981C15CD0402C34310595
:1025D00009F452C0CF53DF4F88819981C15CD0404C
:1025E0008D349105B4F4CF53DF4FE881F981C15C9C
:1025F000D040E434F10509F44DC0CF53DF4F2881BA
:102600003981C15CD0402534310509F449C00C94AE
:102610003A09CF53DF4F88819981C15CD040823520
:10262000910521F1CF53DF4FE881F981C15CD040A2
:10263000E535F10541F1CF53DF4F28813981C15C88
:10264000D0402D34310511F00C943A090E94E52652
:10265000CE018A5A9F4F0E94BC261092970186E0B5
:1026600080938D01109292010C943A091092970177
:10267000109292010C943A0982E080939701109293
:1026800092010C943A0981E0809396011092920194
:102690000C943A0910929601109292010C943A0906
:1026A0000E94E526CE018A5A9F4F0E94BC261092B6
:1026B000970186E080938D0181E0809395011092CF
:1026C00092010C943A0980918D018C3009F0F5C289
:1026D0000E94AF2980919101882309F059C080910F
:1026E0002B018A3058F580E063E00E948F2680E35A
:1026F0000E947F2580912B01882F90E0A0E0B0E020
:10270000BC01CD010E94CB2722E431E080918B01F6
:10271000882F90E0880F991F880F991F820F931FB1
:102720000E94BC2680917E0190917F01CC01A0E0A7
:10273000B0E0BC01CD010E94CB2727C080E063E060
:102740000E948F2680912B01882F90E0A0E0B0E0BE
:10275000BC01CD010E94CB2722E431E080918B01A6
:10276000882F90E0880F991F880F991F820F931F61
:102770000E94BC2680917E0190917F01CC01A0E057
:10278000B0E0BC01CD010E94CB2781E08093910194
:1027900080919701882309F042C180E064E00E94A3
:1027A0008F2680918C01882311F40C943A09809132
:1027B0008C01E82FF0E0C154DF4FF983E883CF5B51
:1027C000D040C154DF4F28813981CF5BD0402C34B9
:1027D000310509F452C0C154DF4F88819981CF5B24
:1027E000D0408D349105B4F4C154DF4FE881F981B4
:1027F000CF5BD040E434F10509F496C0C154DF4FFB
:1028000028813981CF5BD0402534310509F4F8C0E7
:102810000C943A09C154DF4F88819981CF5BD04035
:102820008235910519F1C154DF4FE881F981CF5B01
:10283000D040E535F10541F1C154DF4F28813981A0
:10284000CF5BD0402D34310511F00C943A090E9431
:10285000E526CE0183960E94BC261092970183E064
:1028600080938D01109291010C943A0981E080933C
:102870009701109291010C943A0982E0809397019C
:10288000109291010C943A0980912B018F5F8093F3
:102890002B0180912B018E3181F480918B0181304D
:1028A00061F480917E0190917F0183709070009718
:1028B00021F481E080932B0133C080912B018D3175
:1028C00081F480918B01813061F480917E0190913F
:1028D0007F0183709070009721F081E080932B013D
:1028E0001FC080912B018F31A1F480918B01833027
:1028F00061F080918B01853041F080918B018830AF
:1029000021F080918B018A3021F481E080932B01AA
:1029100007C080912B01803219F481E080932B0154
:10292000109291010C943A0980912B01813081F42D
:1029300080918B01813061F480917E0190917F01C3
:1029400083709070009721F48EE180932B014FC02B
:1029500080912B01813081F480918B01813061F471
:1029600080917E0190917F0183709070009721F09B
:102970008DE180932B013BC080912B018130A1F42C
:1029800080918B01833061F080918B01853041F023
:1029900080918B01883021F080918B018A3021F465
:1029A0008FE180932B0123C080912B018130F9F4BA
:1029B00080918B018823C1F080918B018230A1F03E
:1029C00080918B01843081F080918B01863061F0A1
:1029D00080918B01873041F080918B01893021F00B
:1029E00080918B018B3019F480E280932B018091D0
:1029F0002B01815080932B01109291010C943A0984
:102A00000E94E526CE0183960E94BC261092970173
:102A100083E080938D01109291010C943A0980918A
:102A20009701813009F0A4C080E067E00E948F2602
:102A300080918C01882311F40C943A0980918C01C7
:102A4000E82FF0E0C354DF4FF983E883CD5BD0403B
:102A5000C354DF4F28813981CD5BD0402C34310500
:102A600009F452C0C354DF4F88819981CD5BD040B7
:102A70008D349105B4F4C354DF4FE881F981CD5B07
:102A8000D040E434F10509F454C0C354DF4F288129
:102A90003981CD5BD0402534310509F45AC00C94FE
:102AA0003A09C354DF4F88819981CD5BD04082358C
:102AB000910519F1C354DF4FE881F981CD5BD04016
:102AC000E535F10539F1C354DF4F28813981CD5BFC
:102AD000D0402D34310511F00C943A090E94E526BE
:102AE000CE0183960E94BC261092970183E08093CA
:102AF0008D01109291010C943A0982E08093970124
:102B0000109291010C943A09109297011092910140
:102B10000C943A0980918B018F5F80938B01809197
:102B20008B018C3010F010928B01109291010C945B
:102B30003A0980918B01882319F48CE080938B01F2
:102B400080918B01815080938B01109291010C94A4
:102B50003A090E94E526CE0183960E94BC26109277
:102B6000970183E080938D01109291010C943A09B2
:102B700080919701823011F00C943A0980E06BE06B
:102B80000E948F2680918C01882311F40C943A09BD
:102B900080918C01E82FF0E0C554DF4FF983E88382
:102BA000CB5BD040C554DF4F28813981CB5BD0400F
:102BB0002C34310509F451C0C554DF4F8881998107
:102BC000CB5BD0408D349105B4F4C554DF4FE88120
:102BD000F981CB5BD040E434F10509F452C0C5540F
:102BE000DF4F28813981CB5BD0402534310509F492
:102BF00055C00C943A09C554DF4F88819981CB5B4D
:102C0000D0408235910519F1C554DF4FE881F98133
:102C1000CB5BD040E535F10539F1C554DF4F288154
:102C20003981CB5BD0402D34310511F00C943A0939
:102C30000E94E526CE0183960E94BC261092970141
:102C400083E080938D01109291010C943A091092C7
:102C50009701109291010C943A0981E080939701B9
:102C6000109291010C943A0980917E0190917F011C
:102C7000019690937F0180937E01109291010C94B4
:102C80003A0980917E0190917F01019790937F0195
:102C900080937E01109291010C943A090E94E526DE
:102CA000CE0183960E94BC261092970183E0809308
:102CB0008D01109291010C943A0980918D018D3013
:102CC00009F0C8C080919D018A30B0F480E064E0D2
:102CD0000E948F2680E30E947F2580919D01882F8E
:102CE00090E0A0E0B0E0BC01CD010E94CB2785E6DA
:102CF00090E00E94BC2619C080919D018C3398F40D
:102D000080E064E00E948F2680919D01882F90E0F2
:102D1000A0E0B0E0BC01CD010E94CB2785E690E0A9
:102D20000E94BC2602C010929D0180919E018A30B3
:102D3000B0F480E067E00E948F2680E30E947F2548
:102D400080919E01882F90E0A0E0B0E0BC01CD0111
:102D50000E94CB2785E690E00E94BC261EC0809191
:102D60009E018C3398F480E067E00E948F2680916A
:102D70009E01882F90E0A0E0B0E0BC01CD010E9450
:102D8000CB2785E690E00E94BC2607C010929E01EA
:102D900080919D018F5F80939D0180919F0184367A
:102DA000B0F480E06AE00E948F2680919F01882322
:102DB00019F480E30E947F2580919F01882F90E085
:102DC000A0E0B0E0BC01CD010E94CB2707C010926B
:102DD0009F0180919E018F5F80939E0180918C0165
:102DE000882311F40C943A0980918C01E82FF0E0CB
:102DF000C754DF4FF983E883C95BD040C754DF4F26
:102E000028813981C95BD04025343105F1F0C754A0
:102E1000DF4F88819981C95BD0408D34910511F0D5
:102E20000C943A090E94E526CE01C4960E94BC2665
:102E300084E080938D011092980110929D01109270
:102E40009E0110929F010C943A0981E080939801B1
:102E50000C943A0980918D018E3009F06CC30E9468
:102E6000AF2980918F01882309F09FC080912F01A5
:102E70008A30A8F480E062E00E948F2680E30E94FE
:102E80007F2580912F01882F90E0A0E0B0E0BC0169
:102E9000CD010E94CB278AE30E947F2511C080E0EC
:102EA00062E00E948F2680912F01882F90E0A0E0A1
:102EB000B0E0BC01CD010E94CB278AE30E947F25B0
:102EC000809130018A30A8F480E065E00E948F266E
:102ED00080E30E947F2580913001882F90E0A0E060
:102EE000B0E0BC01CD010E94CB278AE30E947F2580
:102EF00011C080E065E00E948F2680913001882F0C
:102F000090E0A0E0B0E0BC01CD010E94CB278AE3B5
:102F10000E947F25809131018A3020F580E068E0B1
:102F20000E948F2680E30E947F2580913101882FA7
:102F300090E0A0E0B0E0BC01CD010E94CB2780E290
:102F40000E947F2542E751E080918E01282F30E0DA
:102F5000C901880F991F820F931F840F951F0E942C
:102F6000BC2620C080E068E00E948F26809131015D
:102F7000882F90E0A0E0B0E0BC01CD010E94CB27FB
:102F800080E20E947F2542E751E080918E01282F48
:102F900030E0C901880F991F820F931F840F951F7E
:102FA0000E94BC2681E080938F0180919701882345
:102FB00009F0B2C080E063E00E948F2680918C010E
:102FC000882311F40C943A0980918C01E82FF0E0E9
:102FD000C954DF4FF983E883C75BD040C954DF4F42
:102FE00028813981C75BD0402C34310509F452C0A7
:102FF000C954DF4F88819981C75BD0408D349105DA
:10300000B4F4C954DF4FE881F981C75BD040E434A0
:10301000F10509F456C0C954DF4F28813981C75BD7
:10302000D0402534310509F45CC00C943A09C954E8
:10303000DF4F88819981C75BD0408235910519F1B6
:10304000C954DF4FE881F981C75BD040E535F10510
:1030500041F1C954DF4F28813981C75BD0402D34FD
:10306000310511F00C943A090E94E526CE014296F2
:103070000E94BC261092970182E080938D011092ED
:103080008F010C943A0981E08093970110928F018F
:103090000C943A0983E08093970110928F010C946D
:1030A0003A0980912F018F5F80932F0180912F012A
:1030B0008D3019F481E080932F0110928F010C94D0
:1030C0003A0980912F01813019F48DE080932F010E
:1030D00080912F01815080932F0110928F010C94C9
:1030E0003A090E94E526CE0142960E94BC26109223
:1030F0008F011092970182E080938D0180912F01C2
:1031000080932A018091300180938A01809131015E
:10311000809389010C943A0980919701813009F0DC
:10312000B0C080E066E00E948F2680918C018823E9
:1031300011F40C943A0980918C01E82FF0E0CB5403
:10314000DF4FF983E883C55BD040CB54DF4F288144
:103150003981C55BD0402C34310509F452C0CB54C1
:10316000DF4F88819981C55BD0408D349105B4F4DF
:10317000CB54DF4FE881F981C55BD040E434F105E1
:1031800009F454C0CB54DF4F28813981C55BD0404E
:103190002534310509F45AC00C943A09CB54DF4F59
:1031A00088819981C55BD0408235910519F1CB5456
:1031B000DF4FE881F981C55BD040E535F10539F194
:1031C000CB54DF4F28813981C55BD0402D34310588
:1031D00011F00C943A090E94E526CE0142960E9415
:1031E000BC261092970182E080938D0110928F018E
:1031F0000C943A0982E08093970110928F010C940D
:103200003A091092970110928F010C943A0980911B
:1032100030018F5F80933001809130018C3311F445
:103220001092300110928F010C943A098091300174
:10323000882319F48CE38093300180913001815010
:103240008093300110928F010C943A090E94E52678
:10325000CE0142960E94BC2610928F0110929701D7
:1032600082E080938D0180912F0180932A018091CB
:10327000300180938A0180913101809389010C94FF
:103280003A0980919701823009F0B1C080E069E08D
:103290000E948F2680918C01882311F40C943A09A6
:1032A00080918C01E82FF0E0CD54DF4FF983E88363
:1032B000C35BD040CD54DF4F28813981C35BD04000
:1032C0002C34310509F452C0CD54DF4F88819981E7
:1032D000C35BD0408D349105B4F4CD54DF4FE88109
:1032E000F981C35BD040E434F10509F455C0CD54F5
:1032F000DF4F28813981C35BD0402534310509F483
:103300005BC00C943A09CD54DF4F88819981C35B2F
:10331000D0408235910519F1CD54DF4FE881F98114
:10332000C35BD040E535F10541F1CD54DF4F288135
:103330003981C35BD0402D34310511F00C943A092A
:103340000E94E526CE0142960E94BC26109297016B
:1033500082E080938D0110928F010C943A0983E0F2
:103360008093970110928F010C943A0981E0809329
:10337000970110928F010C943A09809131018F5F6F
:1033800080933101809131018C3311F4109231011D
:1033900010928F010C943A0980913101882319F41D
:1033A0008CE3809331018091310181508093310110
:1033B00010928F010C943A090E94E526CE014296A4
:1033C0000E94BC2610928F011092970182E0809398
:1033D0008D0180912F0180932A018091300180938B
:1033E0008A0180913101809389010C943A0980917E
:1033F0009701833011F00C943A0980E06CE00E9450
:103400008F2680918C01882311F40C943A098091C5
:103410008C01E82FF0E0CF54DF4FF983E883C15BE4
:10342000D040CF54DF4F28813981C15BD0402C344C
:10343000310509F451C0CF54DF4F88819981C15BB8
:10344000D0408D349105B4F4CF54DF4FE881F98139
:10345000C15BD040E434F10509F44CC0CF54DF4FD8
:1034600028813981C15BD0402534310509F448C039
:103470000C943A09CF54DF4F88819981C15BD040C9
:103480008235910519F1CF54DF4FE881F981C15B95
:10349000D040E535F10539F1CF54DF4F288139812E
:1034A000C15BD0402D34310511F00C943A090E94D3
:1034B000E526CE0142960E94BC261092970182E03A
:1034C00080938D0110928F010C943A09109297010C
:1034D00010928F010C943A0982E080939701109228
:1034E0008F010C943A0981E080938E0110928F0134
:1034F0000C943A0910928E0110928F010C943A09A3
:103500000E94E526CE0142960E94BC2610928F01B1
:103510001092970182E080938D0180912F0180931A
:103520002A018091300180938A018091310180933A
:1035300089010C943A0980918D018F3011F00C941F
:103540003A0980919901813019F40E94272902C01B
:103550000E94AF2980919301882309F086C0809151
:103560009A018A30B0F480E064E00E948F2680E304
:103570000E947F2580919A01882F90E0A0E0B0E022
:10358000BC01CD010E94CB2785E690E00E94BC26BD
:1035900012C080E064E00E948F2680919A01882FFB
:1035A00090E0A0E0B0E0BC01CD010E94CB2785E611
:1035B00090E00E94BC2680919B018A30B0F480E0AC
:1035C00067E00E948F2680E30E947F2580919B0107
:1035D000882F90E0A0E0B0E0BC01CD010E94CB2795
:1035E00085E690E00E94BC2612C080E067E00E9461
:1035F0008F2680919B01882F90E0A0E0B0E0BC0175
:10360000CD010E94CB2785E690E00E94BC268091E8
:103610009C018A3090F480E06AE00E948F2680E36B
:103620000E947F2580919C01882F90E0A0E0B0E06F
:10363000BC01CD010E94CB270EC080E06AE00E9451
:103640008F2680919C01882F90E0A0E0B0E0BC0123
:10365000CD010E94CB2780919901813019F41092FD
:10366000930103C081E080939301809199018823A5
:1036700009F0E8C180919701882309F09EC080E09D
:1036800065E00E948F2680918C01882311F40C94B0
:103690003A0980918C01E82FF0E0C155DF4FF983A2
:1036A000E883CF5AD040C155DF4F28813981CF5AA6
:1036B000D0402C34310509F453C0C155DF4F888107
:1036C0009981CF5AD0408D349105B4F4C155DF4F64
:1036D000E881F981CF5AD040E434F10509F456C0AD
:1036E000C155DF4F28813981CF5AD040253431056B
:1036F00009F45CC00C943A09C155DF4F8881998167
:10370000CF5AD0408235910521F1C155DF4FE88174
:10371000F981CF5AD040E535F10549F1C155DF4F68
:1037200028813981CF5AD0402D34310511F00C94C5
:103730003A090E94E526CE0187579F4F0E94BC267A
:103740001092970189E080938D01109293010C945F
:103750003A0981E080939701109293010C943A0901
:1037600082E080939701109293010C943A09809122
:103770009A018F5F80939A0180919A01893111F4A7
:1037800010929A01109293010C943A0980919A0137
:10379000882319F489E180939A0180919A018150DC
:1037A00080939A01109293010C943A0981E08093DE
:1037B0009901109293010C943A09809197018130FC
:1037C00009F09DC080E068E00E948F2680918C0106
:1037D000882311F40C943A0980918C01E82FF0E0D1
:1037E000C355DF4FF983E883CD5AD040C355DF4F2F
:1037F00028813981CD5AD0402C34310509F453C089
:10380000C355DF4F88819981CD5AD0408D349105C1
:10381000B4F4C355DF4FE881F981CD5AD040E43488
:10382000F10509F455C0C355DF4F28813981CD5AC0
:10383000D0402534310509F45BC00C943A09C355D6
:10384000DF4F88819981CD5AD0408235910521F191
:10385000C355DF4FE881F981CD5AD040E535F105F8
:1038600041F1C355DF4F28813981CD5AD0402D34E5
:10387000310511F00C943A090E94E526CE018757D4
:103880009F4F0E94BC261092970189E080938D0182
:10389000109293010C943A0982E080939701109260
:1038A00093010C943A0910929701109293010C9491
:1038B0003A0980919B018F5F80939B0180919B01CE
:1038C0008C3311F410929B01109293010C943A09DD
:1038D00080919B01882319F48CE380939B01809154
:1038E0009B01815080939B01109293010C943A09A3
:1038F00081E080939901109293010C943A09809190
:103900009701823011F00C943A0980E06BE00E943C
:103910008F2680918C01882311F40C943A098091B0
:103920008C01E82FF0E0C555DF4FF983E883CB5ACF
:10393000D040C555DF4F28813981CB5AD0402C3437
:10394000310509F452C0C555DF4F88819981CB5AA2
:10395000D0408D349105B4F4C555DF4FE881F9812D
:10396000CB5AD040E434F10509F455C0C555DF4FBA
:1039700028813981CB5AD0402534310509F45BC008
:103980000C943A09C555DF4F88819981CB5AD040B4
:103990008235910521F1C555DF4FE881F981CB5A78
:1039A000D040E535F10541F1C555DF4F288139811A
:1039B000CB5AD0402D34310511F00C943A090E94B5
:1039C000E526CE0187579F4F0E94BC261092970193
:1039D00089E080938D01109293010C943A09109222
:1039E0009701109293010C943A0981E0809397011A
:1039F000109293010C943A0980919C018F5F8093FF
:103A00009C0180919C018C3311F410929C011092C6
:103A100093010C943A0980919C01882319F48CE35A
:103A200080939C0180919C01815080939C01109215
:103A300093010C943A0981E08093990110929301CB
:103A40000C943A0980918C01882F90E08D34910577
:103A500011F00C943A090E94E526CE0187579F4F3A
:103A60000E94BC261092970189E080938D011092EC
:103A700093010C943A09DF93CF93CDB7DEB78091D1
:103A8000860190918701019690938701809386012A
:103A9000809186019091870123E0883E9207B1F4DE
:103AA0001092870110928601809189018F5F809327
:103AB000890180919901813049F480919C0188238A
:103AC00029F080919C01815080939C018091980104
:103AD000813081F4809188018F5F8093880180918B
:103AE00088018A3039F41092880180919F018F5F9C
:103AF00080939F01CF91DF910895DF93CF93CDB74E
:103B0000DEB727970FB6F894DEBF0FBECDBF89830F
:103B10006A834B838981843008F0EEC08A818830C3
:103B200008F0EAC08B81813009F06FC08981282FAD
:103B300030E03F832E838E819F818130910549F152
:103B40002E813F81223031052CF48E819F81009798
:103B500061F0D2C02E813F812230310571F18E811A
:103B60009F8183309105E9F1C7C0AAE3B0E0EAE3A1
:103B7000F0E08081482F8A81282F30E081E090E0BA
:103B8000022E02C0880F991F0A94E2F7842B8C93AF
:103B9000B3C0A7E3B0E0E7E3F0E08081482F8A817B
:103BA000282F30E081E090E0022E02C0880F991F9C
:103BB0000A94E2F7842B8C939FC0A4E3B0E0E4E383
:103BC000F0E08081482F8A81282F30E081E090E06A
:103BD000022E02C0880F991F0A94E2F7842B8C935F
:103BE0008BC0A1E3B0E0E1E3F0E08081482F8A815F
:103BF000282F30E081E090E0022E02C0880F991F4C
:103C00000A94E2F7842B8C9377C08B81882309F088
:103C100073C08981282F30E03D832C838C819D8166
:103C20008130910559F12C813D81223031052CF4F0
:103C30008C819D81009769F05FC02C813D8122308D
:103C4000310589F18C819D818330910509F440C053
:103C500053C0AAE3B0E0EAE3F0E08081482F8A8114
:103C6000282F30E081E090E0022E02C0880F991FDB
:103C70000A94E2F7809584238C933EC0A7E3B0E0DA
:103C8000E7E3F0E08081482F8A81282F30E081E04F
:103C900090E0022E02C0880F991F0A94E2F78095E7
:103CA00084238C9329C0A4E3B0E0E4E3F0E08081B6
:103CB000482F8A81282F30E081E090E0022E02C058
:103CC000880F991F0A94E2F7809584238C9314C07F
:103CD000A1E3B0E0E1E3F0E08081482F8A81282F62
:103CE00030E081E090E0022E02C0880F991F0A9414
:103CF000E2F7809584238C9327960FB6F894DEBF65
:103D00000FBECDBFCF91DF910895DF93CF93CDB795
:103D1000DEB727970FB6F894DEBF0FBECDBF8983FD
:103D20006A834B838981843008F0EEC08A818830B1
:103D300008F0EAC08B81813009F06FC08981282F9B
:103D400030E03F832E838E819F818130910549F140
:103D50002E813F81223031052CF48E819F81009786
:103D600061F0D2C02E813F812230310571F18E8108
:103D70009F8183309105E9F1C7C0ABE3B0E0EBE38D
:103D8000F0E08081482F8A81282F30E081E090E0A8
:103D9000022E02C0880F991F0A94E2F7842B8C939D
:103DA000B3C0A8E3B0E0E8E3F0E08081482F8A8167
:103DB000282F30E081E090E0022E02C0880F991F8A
:103DC0000A94E2F7842B8C939FC0A5E3B0E0E5E36F
:103DD000F0E08081482F8A81282F30E081E090E058
:103DE000022E02C0880F991F0A94E2F7842B8C934D
:103DF0008BC0A2E3B0E0E2E3F0E08081482F8A814B
:103E0000282F30E081E090E0022E02C0880F991F39
:103E10000A94E2F7842B8C9377C08B81882309F076
:103E200073C08981282F30E03D832C838C819D8154
:103E30008130910559F12C813D81223031052CF4DE
:103E40008C819D81009769F05FC02C813D8122307B
:103E5000310589F18C819D818330910509F440C041
:103E600053C0ABE3B0E0EBE3F0E08081482F8A8100
:103E7000282F30E081E090E0022E02C0880F991FC9
:103E80000A94E2F7809584238C933EC0A8E3B0E0C7
:103E9000E8E3F0E08081482F8A81282F30E081E03C
:103EA00090E0022E02C0880F991F0A94E2F78095D5
:103EB00084238C9329C0A5E3B0E0E5E3F0E08081A2
:103EC000482F8A81282F30E081E090E0022E02C046
:103ED000880F991F0A94E2F7809584238C9314C06D
:103EE000A2E3B0E0E2E3F0E08081482F8A81282F4E
:103EF00030E081E090E0022E02C0880F991F0A9402
:103F0000E2F7809584238C9327960FB6F894DEBF52
:103F10000FBECDBFCF91DF910895DF93CF9300D037
:103F200000D0CDB7DEB789836A838981843090F56C
:103F30008981282F30E03C832B838B819C818130C9
:103F40009105D1F02B813C81223031052CF48B81FD
:103F50009C81009761F01EC02B813C81223031058D
:103F600081F08B819C818330910581F013C0EAE35D
:103F7000F0E08A8180830EC0E7E3F0E08A818083ED
:103F800009C0E4E3F0E08A81808304C0E1E3F0E06B
:103F90008A8180830F900F900F900F90CF91DF91C7
:103FA0000895DF93CF9300D000D0CDB7DEB78983DB
:103FB0006A838981843090F58981282F30E03C83A1
:103FC0002B838B819C8181309105D1F02B813C81A9
:103FD000223031052CF48B819C81009761F01EC04A
:103FE0002B813C812230310581F08B819C81833093
:103FF000910581F013C0EBE3F0E08A8180830EC06D
:10400000E8E3F0E08A81808309C0E5E3F0E08A819B
:10401000808304C0E2E3F0E08A8180830F900F90F8
:104020000F900F90CF91DF910895DF93CF9300D041
:1040300000D00F92CDB7DEB78A836B838A8184303C
:1040400008F06BC08B81883008F067C08A81282F08
:1040500030E03D832C834C815D814130510541F13D
:104060008C819D818230910534F42C813D81211514
:10407000310561F052C04C815D814230510551F1F2
:104080008C819D8183309105B9F147C0E9E3F0E06F
:104090008081282F30E08B81882F90E0A90102C019
:1040A000559547958A95E2F7CA018170898335C095
:1040B000E6E3F0E08081282F30E08B81882F90E0CC
:1040C000A90102C0559547958A95E2F7CA0181700A
:1040D000898323C0E3E3F0E08081282F30E08B81E7
:1040E000882F90E0A90102C0559547958A95E2F77F
:1040F000CA018170898311C0E0E3F0E08081282F3C
:1041000030E08B81882F90E0A90102C0559547953A
:104110008A95E2F7CA018170898389810F900F9097
:104120000F900F900F90CF91DF910895DF93CF9371
:1041300000D000D0CDB7DEB789836A83898184300F
:1041400008F072C08A81883008F06EC08981282FFB
:1041500030E03C832B838B819C818130910549F138
:104160002B813C81223031052CF48B819C8100977E
:1041700061F05AC02B813C812230310571F18B8175
:104180009C8183309105E9F14FC0ABE3B0E0EBE3F4
:10419000F0E08081482F8A81282F30E081E090E094
:1041A000022E02C0880F991F0A94E2F784278C938D
:1041B0003BC0A8E3B0E0E8E3F0E08081482F8A81CB
:1041C000282F30E081E090E0022E02C0880F991F76
:1041D0000A94E2F784278C9327C0A5E3B0E0E5E3D7
:1041E000F0E08081482F8A81282F30E081E090E044
:1041F000022E02C0880F991F0A94E2F784278C933D
:1042000013C0A2E3B0E0E2E3F0E08081482F8A81AE
:10421000282F30E081E090E0022E02C0880F991F25
:104220000A94E2F784278C930F900F900F900F90D1
:10423000CF91DF910895DF93CF93CDB7DEB7AFE590
:10424000B0E0EFE5F0E0808180688C93CF91DF9162
:104250000895DF93CF93CDB7DEB7AFE5B0E0EFE5DC
:10426000F0E080818F778C93CF91DF910895DF9379
:10427000CF93CDB7DEB761970FB6F894DEBF0FBE10
:10428000CDBF1F86198AABC081E0698940E00E94DA
:10429000851E83E0888B97C081E068890E94152085
:1042A000882309F08DC08889882F90E09C012350D5
:1042B00030408989482F50E0C901880F991F820F2B
:1042C000931F840F951FFC01E058FE4F80818F875C
:1042D00081E068890E9415208823D1F380E090E076
:1042E000A0E2B1E48B879C87AD87BE876B857C8518
:1042F0008D859E8520E030E04AEF54E40E941F0245
:10430000DC01CB018F839887A987BA876F81788575
:1043100089859A8520E030E040E85FE30E947903D8
:1043200088232CF481E090E09E838D833FC06F81D1
:10433000788589859A8520E03FEF4FE757E40E9412
:10434000190318164CF56B857C858D859E8520E0BC
:1043500030E040E251E40E941F02DC01CB01BC01CD
:10436000CD010E944900DC01CB019E838D830FC0EB
:1043700088EC90E09C838B838B819C810197F1F783
:104380009C838B838D819E8101979E838D838D81FC
:104390009E81009769F714C06F81788589859A8519
:1043A0000E944900DC01CB019E838D838D819E811B
:1043B0009A83898389819A810197F1F79A83898306
:1043C00088898F5F888B8889853008F465CF81E084
:1043D000698941E00E94851E89898F5F898B89895F
:1043E000833008F451CF8F8561960FB6F894DEBF05
:1043F0000FBECDBFCF91DF9108950F931F93DF9331
:10440000CF93CDB7DEB7C654D0400FB6F894DEBF19
:104410000FBECDBFFE01ED5BFF4F80E090E0A8E452
:10442000B2E480839183A283B3838E01015C1F4F2A
:10443000FE01ED5BFF4F608171818281938120E0FD
:1044400030E04AEF54E40E941F02DC01CB01F80186
:1044500080839183A283B383FE01FF966081718183
:104460008281938120E030E040E85FE30E9479039D
:1044700088232CF481E090E09EAF8DAF46C0FE0112
:10448000FF96608171818281938120E03FEF4FE749
:1044900057E40E941903181664F5FE01ED5BFF4F07
:1044A000608171818281938120E030E040E251E4BB
:1044B0000E941F02DC01CB01BC01CD010E9449001A
:1044C000DC01CB019EAF8DAF0FC088EC90E09CAFBC
:1044D0008BAF8BAD9CAD0197F1F79CAF8BAF8DADE2
:1044E0009EAD01979EAF8DAF8DAD9EAD009769F7E4
:1044F00016C0FE01FF9660817181828193810E94C6
:104500004900DC01CB019EAF8DAF8DAD9EAD9AAF62
:1045100089AF89AD9AAD0197F1F79AAF89AF88E37A
:104520000E946F2480E090E0A0E8BFE38DAB9EABDB
:10453000AFABB8AF6DA97EA98FA998AD20E030E0F0
:104540004AEF54E40E941F02DC01CB0189AB9AAB15
:10455000ABABBCAB69A97AA98BA99CA920E030E0E0
:1045600040E85FE30E94790388232CF481E090E027
:1045700098AB8FA73FC069A97AA98BA99CA920E015
:104580003FEF4FE757E40E94190318164CF56DA949
:104590007EA98FA998AD20E030E040E251E40E946E
:1045A0001F02DC01CB01BC01CD010E944900DC01EE
:1045B000CB0198AB8FA70FC088EC90E09EA78DA78A
:1045C0008DA59EA50197F1F79EA78DA78FA598A908
:1045D000019798AB8FA78FA598A9009769F714C08A
:1045E00069A97AA98BA99CA90E944900DC01CB0189
:1045F00098AB8FA78FA598A99CA78BA78BA59CA5E7
:104600000197F1F79CA78BA78EE00E946F2480E0B2
:1046100090E0A0E7B1E48FA398A7A9A7BAA76FA1DC
:1046200078A589A59AA520E030E04AEF54E40E94DD
:104630001F02DC01CB018BA39CA3ADA3BEA36BA186
:104640007CA18DA19EA120E030E040E85FE30E94C4
:10465000790388232CF481E090E09AA389A33FC0DA
:104660006BA17CA18DA19EA120E03FEF4FE757E415
:104670000E94190318164CF56FA178A589A59AA573
:1046800020E030E040E251E40E941F02DC01CB0157
:10469000BC01CD010E944900DC01CB019AA389A392
:1046A0000FC088EC90E098A38F8F8F8D98A1019711
:1046B000F1F798A38F8F89A19AA101979AA389A353
:1046C00089A19AA1009769F714C06BA17CA18DA163
:1046D0009EA10E944900DC01CB019AA389A389A174
:1046E0009AA19E8F8D8F8D8D9E8D0197F1F79E8F54
:1046F0008D8F82E00E946F2480E090E0A0E7B1E41B
:10470000898F9A8FAB8FBC8F698D7A8D8B8D9C8DA5
:1047100020E030E04AEF54E40E941F02DC01CB01AC
:104720008D8B9E8BAF8BB88F6D897E898F89988D8D
:1047300020E030E040E85FE30E94790388232CF416
:1047400081E090E09C8B8B8B3FC06D897E898F8947
:10475000988D20E03FEF4FE757E40E9419031816A9
:104760004CF5698D7A8D8B8D9C8D20E030E040E298
:1047700051E40E941F02DC01CB01BC01CD010E946B
:104780004900DC01CB019C8B8B8B0FC088EC90E047
:104790009A8B898B89899A890197F1F79A8B898BF2
:1047A0008B899C8901979C8B8B8B8B899C8900972B
:1047B00069F714C06D897E898F89988D0E944900A0
:1047C000DC01CB019C8B8B8B8B899C89988B8F8791
:1047D0008F8598890197F1F7988B8F8786E00E94E3
:1047E0006F2480E090E0A0E0B0E48B879C87AD87E9
:1047F000BE876B857C858D859E8520E030E04AEF05
:1048000054E40E941F02DC01CB018F839887A987A3
:10481000BA876F81788589859A8520E030E040E805
:104820005FE30E94790388232CF481E090E09E836B
:104830008D833FC06F81788589859A8520E03FEF21
:104840004FE757E40E94190318164CF56B857C85D9
:104850008D859E8520E030E040E251E40E941F02F9
:10486000DC01CB01BC01CD010E944900DC01CB0180
:104870009E838D830FC088EC90E09C838B838B811B
:104880009C810197F1F79C838B838D819E81019799
:104890009E838D838D819E81009769F714C06F81FF
:1048A000788589859A850E944900DC01CB019E8329
:1048B0008D838D819E819A83898389819A810197D5
:1048C000F1F79A838983CA5BDF4F0FB6F894DEBF96
:1048D0000FBECDBFCF91DF911F910F910895DF9350
:1048E000CF93CDB7DEB76D970FB6F894DEBF0FBE8E
:1048F000CDBF8D8F83E062E040E00E94851E83E0A3
:1049000061E040E00E94851E82E06D8D0E94D11F13
:1049100083E060E041E00E94851E80E090E0A0EA34
:10492000B0E4898F9A8FAB8FBC8F698D7A8D8B8D18
:104930009C8D20E030E04AEF54E40E941F02DC012D
:10494000CB018D8B9E8BAF8BB88F6D897E898F89C4
:10495000988D20E030E040E85FE30E9479038823EF
:104960002CF481E090E09C8B8B8B3FC06D897E891D
:104970008F89988D20E03FEF4FE757E40E9419039D
:1049800018164CF5698D7A8D8B8D9C8D20E030E06A
:1049900040E251E40E941F02DC01CB01BC01CD01C9
:1049A0000E944900DC01CB019C8B8B8B0FC088ECF3
:1049B00090E09A8B898B89899A890197F1F79A8B74
:1049C000898B8B899C8901979C8B8B8B8B899C898C
:1049D000009769F714C06D897E898F89988D0E9430
:1049E0004900DC01CB019C8B8B8B8B899C89988B3C
:1049F0008F878F8598890197F1F7988B8F8783E050
:104A000060E040E00E94851E80E090E0A0EAB0E413
:104A10008B879C87AD87BE876B857C858D859E85C2
:104A200020E030E04AEF54E40E941F02DC01CB0199
:104A30008F839887A987BA876F81788589859A85BA
:104A400020E030E040E85FE30E94790388232CF403
:104A500081E090E09E838D833FC06F81788589855A
:104A60009A8520E03FEF4FE757E40E94190318169C
:104A70004CF56B857C858D859E8520E030E040E29D
:104A800051E40E941F02DC01CB01BC01CD010E9458
:104A90004900DC01CB019E838D830FC088EC90E040
:104AA0009C838B838B819C810197F1F79C838B8303
:104AB0008D819E8101979E838D838D819E8100973C
:104AC00069F714C06F81788589859A850E944900AD
:104AD000DC01CB019E838D838D819E819A838983A6
:104AE00089819A810197F1F79A8389836D960FB630
:104AF000F894DEBF0FBECDBFCF91DF910895DF9355
:104B0000CF93CDB7DEB76D970FB6F894DEBF0FBE6B
:104B1000CDBF8D8F83E062E041E00E94851E83E07F
:104B200061E040E00E94851E82E06D8D0E94D11FF1
:104B300083E060E041E00E94851E80E090E0A0EA12
:104B4000B0E4898F9A8FAB8FBC8F698D7A8D8B8DF6
:104B50009C8D20E030E04AEF54E40E941F02DC010B
:104B6000CB018D8B9E8BAF8BB88F6D897E898F89A2
:104B7000988D20E030E040E85FE30E9479038823CD
:104B80002CF481E090E09C8B8B8B3FC06D897E89FB
:104B90008F89988D20E03FEF4FE757E40E9419037B
:104BA00018164CF5698D7A8D8B8D9C8D20E030E048
:104BB00040E251E40E941F02DC01CB01BC01CD01A7
:104BC0000E944900DC01CB019C8B8B8B0FC088ECD1
:104BD00090E09A8B898B89899A890197F1F79A8B52
:104BE000898B8B899C8901979C8B8B8B8B899C896A
:104BF000009769F714C06D897E898F89988D0E940E
:104C00004900DC01CB019C8B8B8B8B899C89988B19
:104C10008F878F8598890197F1F7988B8F8783E02D
:104C200060E040E00E94851E80E090E0A0EAB0E4F1
:104C30008B879C87AD87BE876B857C858D859E85A0
:104C400020E030E04AEF54E40E941F02DC01CB0177
:104C50008F839887A987BA876F81788589859A8598
:104C600020E030E040E85FE30E94790388232CF4E1
:104C700081E090E09E838D833FC06F817885898538
:104C80009A8520E03FEF4FE757E40E94190318167A
:104C90004CF56B857C858D859E8520E030E040E27B
:104CA00051E40E941F02DC01CB01BC01CD010E9436
:104CB0004900DC01CB019E838D830FC088EC90E01E
:104CC0009C838B838B819C810197F1F79C838B83E1
:104CD0008D819E8101979E838D838D819E8100971A
:104CE00069F714C06F81788589859A850E9449008B
:104CF000DC01CB019E838D838D819E819A83898384
:104D000089819A810197F1F79A8389836D960FB60D
:104D1000F894DEBF0FBECDBFCF91DF910895DF9332
:104D2000CF9300D000D0CDB7DEB789836A83898165
:104D30008230D8F48A818031C0F48981282F30E014
:104D40003C832B838B819C81009731F02B813C81AC
:104D50002130310531F009C08A8180580E946F24CA
:104D600004C08A8180540E946F240F900F900F908E
:104D70000F90CF91DF910895DF93CF9300D00F92E2
:104D8000CDB7DEB79B838A8319820EC08981282F15
:104D900030E08A819B81FC01E20FF31F80810E9439
:104DA0007F2589818F5F89838981282F30E08A81DF
:104DB0009B81FC01E20FF31F8081882339F70F905C
:104DC0000F900F90CF91DF910895DF93CF93CDB7E0
:104DD000DEB72E970FB6F894DEBF0FBECDBF81E0D1
:104DE0000E946F2480E090E0A0EAB0E48B879C876B
:104DF000AD87BE876B857C858D859E8520E030E004
:104E00004AEF54E40E941F02DC01CB018F83988794
:104E1000A987BA876F81788589859A8520E030E0F7
:104E200040E85FE30E94790388232CF481E090E05E
:104E30009E838D833FC06F81788589859A8520E028
:104E40003FEF4FE757E40E94190318164CF56B85A6
:104E50007C858D859E8520E030E040E251E40E9413
:104E60001F02DC01CB01BC01CD010E944900DC0125
:104E7000CB019E838D830FC088EC90E09C838B8355
:104E80008B819C810197F1F79C838B838D819E811F
:104E900001979E838D838D819E81009769F714C051
:104EA0006F81788589859A850E944900DC01CB0154
:104EB0009E838D838D819E819A83898389819A8146
:104EC0000197F1F79A8389832E960FB6F894DEBF87
:104ED0000FBECDBFCF91DF910895DF93CF9300D068
:104EE0000F92CDB7DEB7898389818230E0F4898162
:104EF00060E00E948F268981282F30E03B832A833F
:104F00008A819B81009731F02A813B8121303105D4
:104F100031F009C081E191E00E94BC2604C081E12A
:104F200091E00E94BC260F900F900F90CF91DF91DF
:104F30000895DF93CF9300D000D0CDB7DEB79B8329
:104F40008A836C838C818830F8F48C81882F90E080
:104F50000896880F991F880F991F880F991F0E9424
:104F60006F2419820EC08981282F30E08A819B81AD
:104F7000FC01E20FF31F80810E947F2589818F5FF2
:104F800089838981883078F30F900F900F900F906C
:104F9000CF91DF910895DF93CF93CDB7DEB76D97B3
:104FA0000FB6F894DEBF0FBECDBF6A8F7B8F8C8F9C
:104FB0009D8F89E0FE017196DF01982F1D929A95D1
:104FC000E9F781E08D8789E0888B2DC18AE06889C7
:104FD0000E94372ADC01CB018D839E83AF83B88783
:104FE0002A8D3B8D4C8D5D8D8D819E81AF81B885E5
:104FF000281739074A075B0708F412C18D858130ED
:1050000011F488898E871D868A8D9B8DAC8DBD8D10
:105010002D813E814F815885BC01CD010E945C32BB
:10502000DA01C9018F878A8D9B8DAC8DBD8D2D8155
:105030003E814F815885BC01CD010E945C32DC016C
:10504000CB0189839A83AB83BC8389819A81AB81AD
:10505000BC810097A105B10579F58889882361F1A4
:105060008E85282F30E08889882F90E0281B390B07
:105070008F85482F405DCE014196FC01E20FF31F62
:10508000408312C088898150888B8E85282F30E01C
:105090008889882F90E0281B390BCE014196FC01AE
:1050A000E20FF31F80E380838889882359F7CE01BC
:1050B00041960E94BC26BBC08D819E81AF81B88580
:1050C0002AE030E040E050E0BC01CD010E945C32BB
:1050D000DA01C9019C01AD0189819A81AB81BC8152
:1050E00082179307A407B50708F06CC08E85282F98
:1050F00030E08889882F90E0281B390B8F85482F56
:10510000405DCE014196FC01E20FF31F408324C0B5
:1051100088898150888B8D819E81AF81B8852AE0F6
:1051200030E040E050E0BC01CD010E945C32DA0189
:10513000C9018D839E83AF83B8878E85282F30E089
:105140008889882F90E0281B390BCE014196FC01FD
:10515000E20FF31F80E380838D819E81AF81B8854C
:105160002AE030E040E050E0BC01CD010E945C321A
:10517000DA01C9019C01AD0189819A81AB81BC81B1
:1051800082179307A407B50718F28889823048F080
:1051900089819A81AB81BC818A8F9B8FAC8FBD8FB7
:1051A0003FC08E85282F30E08981482F405DCE0199
:1051B0004196FC01E20FF31F4083CE0141960E940D
:1051C000BC2635C08E85282F30E08889882F90E056
:1051D000281B390B8F85482F405DCE014196FC017D
:1051E000E20FF31F40838889823048F089819A81D9
:1051F000AB81BC818A8F9B8FAC8FBD8F11C08E8598
:10520000282F30E08981482F405DCE014196FC0176
:10521000E20FF31F4083CE0141960E94BC2607C0D7
:1052200088898150888B8889882309F0CFCE8D8525
:10523000813021F48A8D805D0E947F256D960FB6A6
:10524000F894DEBF0FBECDBFCF91DF910895DF93FD
:10525000CF93CDB7DEB72E970FB6F894DEBF0FBE53
:10526000CDBF8CE00E946F2480E090E0A0E7B1E425
:105270008B879C87AD87BE876B857C858D859E855A
:1052800020E030E04AEF54E40E941F02DC01CB0131
:105290008F839887A987BA876F81788589859A8552
:1052A00020E030E040E85FE30E94790388232CF49B
:1052B00081E090E09E838D833FC06F8178858985F2
:1052C0009A8520E03FEF4FE757E40E941903181634
:1052D0004CF56B857C858D859E8520E030E040E235
:1052E00051E40E941F02DC01CB01BC01CD010E94F0
:1052F0004900DC01CB019E838D830FC088EC90E0D8
:105300009C838B838B819C810197F1F79C838B839A
:105310008D819E8101979E838D838D819E810097D3
:1053200069F714C06F81788589859A850E94490044
:10533000DC01CB019E838D838D819E819A8389833D
:1053400089819A810197F1F79A8389832E960FB606
:10535000F894DEBF0FBECDBFCF91DF910895DF93EC
:10536000CF93CDB7DEB72E970FB6F894DEBF0FBE42
:10537000CDBF8EE00E946F2480E090E0A0E7B1E412
:105380008B879C87AD87BE876B857C858D859E8549
:1053900020E030E04AEF54E40E941F02DC01CB0120
:1053A0008F839887A987BA876F81788589859A8541
:1053B00020E030E040E85FE30E94790388232CF48A
:1053C00081E090E09E838D833FC06F8178858985E1
:1053D0009A8520E03FEF4FE757E40E941903181623
:1053E0004CF56B857C858D859E8520E030E040E224
:1053F00051E40E941F02DC01CB01BC01CD010E94DF
:105400004900DC01CB019E838D830FC088EC90E0C6
:105410009C838B838B819C810197F1F79C838B8389
:105420008D819E8101979E838D838D819E810097C2
:1054300069F714C06F81788589859A850E94490033
:10544000DC01CB019E838D838D819E819A8389832C
:1054500089819A810197F1F79A8389832E960FB6F5
:10546000F894DEBF0FBECDBFCF91DF910895DF93DB
:10547000CF9300D000D000D0CDB7DEB78D836E8340
:1054800081E090E0A0E0B0E089839A83AB83BC83A5
:1054900016C08D81282F30E040E050E089819A814C
:1054A000AB81BC81BC01CD010E942932DC01CB0162
:1054B00089839A83AB83BC838E8181508E838E8156
:1054C000882339F789819A81AB81BC81BC01CD01E8
:1054D00026960FB6F894DEBF0FBECDBFCF91DF91F9
:1054E0000895DF93CF93CDB7DEB7A3E5B0E0E3E552
:1054F000F0E080818F7B8C93A3E5B0E0E3E5F0E002
:10550000808188608C93A3E5B0E0E3E5F0E08081E2
:105510008F7E8C93A3E5B0E0E3E5F0E080818F7DA2
:105520008C93ECE5F0E08CE78083A9E5B0E0E9E559
:10553000F0E0808182608C93A3E5B0E0E3E5F0E0E9
:105540008081887F8C93A3E5B0E0E3E5F0E0808183
:1055500083608C93CF91DF910895DF93CF9300D038
:105560000F92CDB7DEB789838981843008F05AC0A5
:105570008981282F30E03B832A838A819B81813077
:10558000910521F12A813B81223031052CF48A8159
:105590009B81009761F046C02A813B812230310512
:1055A00021F18A819B818330910571F13BC0A3E594
:1055B000B0E0E3E5F0E080818F7B8C93A3E5B0E081
:1055C000E3E5F0E08081877F8C932CC0A3E5B0E019
:1055D000E3E5F0E0808180648C93A3E5B0E0E3E54F
:1055E000F0E08081877F8C931DC0A3E5B0E0E3E508
:1055F000F0E080818F7B8C93A3E5B0E0E3E5F0E001
:10560000808188608C930EC0A3E5B0E0E3E5F0E014
:10561000808180648C93A3E5B0E0E3E5F0E08081D5
:1056200088608C930F900F900F90CF91DF91089529
:10563000DF93CF930F92CDB7DEB78983E2E5F0E039
:10564000898180830F90CF91DF910895DF93CF936D
:105650000F92CDB7DEB78983ECE5F0E089818083D6
:105660000F90CF91DF910895DF93CF930F92CDB735
:10567000DEB789838981883078F4A3E5B0E0E3E57B
:10568000F0E08081887F8C93A3E5B0E0E3E5F0E073
:1056900090818981892B8C930F90CF91DF91089510
:1056A000DF93CF93CDB7DEB7A3E5B0E0E3E5F0E05D
:1056B0008081887F8C93CF91DF910895DF93CF9382
:1056C0000F92CDB7DEB71982E2E5F0E080818983E1
:1056D00089810F90CF91DF910895DF93CF9300D010
:1056E00000D0CDB7DEB789836A8389818536A0F57E
:1056F0008A81823088F58A81282F30E03C832B8391
:105700008B819C810097A9F02B813C812130310550
:1057100019F5ECE5F0E08981882F90E0982F882733
:1057200024E630E0B9010E944832CB0181508083E9
:1057300013C0ECE5F0E08981282F30E084E690E0AA
:10574000821B930B982F882724E630E0B9010E9432
:105750004832CB01815080830F900F900F900F90B3
:10576000CF91DF910895DF93CF93CDB7DEB7AEE44D
:10577000B0E0EEE4F0E0808180618C93AEE4B0E0D4
:10578000EEE4F0E0808188608C93AFE4B0E0EFE479
:10579000F0E0808182608C93AFE4B0E0EFE4F0E071
:1057A000808181608C93EAE4F0E011821082E8E469
:1057B000F0E011821082AFE4B0E0EFE4F0E080812D
:1057C0008F778C93AFE4B0E0EFE4F0E080818F7BE3
:1057D0008C93AFE4B0E0EFE4F0E080818F7D8C93B8
:1057E000AFE4B0E0EFE4F0E080818F7E8C93A9E538
:1057F000B0E0E9E5F0E080818B7F8C93A9E5B0E033
:10580000E9E5F0E08081877F8C93AEE4B0E0EEE4E0
:10581000F0E08081887F8C93AEE4B0E0EEE4F0E0CD
:1058200080818C93CF91DF910895DF93CF9300D047
:105830000F92CDB7DEB789838981803108F016C217
:105840008981282F30E03B832A838A819B8187309E
:10585000910509F424C12A813B81283031054CF59A
:105860008A819B818330910509F4A5C02A813B81FF
:10587000243031058CF48A819B818130910509F4B3
:1058800060C02A813B81223031050CF077C08A81CB
:105890009B810097C9F1EAC12A813B8125303105FE
:1058A00009F4C3C08A819B81863091050CF0DAC06F
:1058B0009FC02A813B812B30310509F464C18A8164
:1058C0009B818C3091056CF42A813B812930310514
:1058D00009F41FC18A819B818A3091050CF036C181
:1058E000FBC02A813B812E30310509F486C18A81B3
:1058F0009B818F30910509F49DC12A813B812C3019
:10590000310509F45DC1B2C1AEE4B0E0EEE4F0E00F
:1059100080818F7E8C93AEE4B0E0EEE4F0E0808195
:10592000877F8C93AFE4B0E0EFE4F0E080818D7F7F
:105930008C93AFE4B0E0EFE4F0E080818E7F8C9355
:1059400095C1AEE4B0E0EEE4F0E080818F7E8C9310
:10595000AEE4B0E0EEE4F0E08081877F8C93AFE4CA
:10596000B0E0EFE4F0E080818D7F8C93AFE4B0E0B5
:10597000EFE4F0E0808181608C9378C1AEE4B0E028
:10598000EEE4F0E080818F7E8C93AEE4B0E0EEE454
:10599000F0E08081877F8C93AFE4B0E0EFE4F0E04B
:1059A000808182608C93AFE4B0E0EFE4F0E080812E
:1059B0008E7F8C935BC1AEE4B0E0EEE4F0E08081DA
:1059C0008F7E8C93AEE4B0E0EEE4F0E08081877FE0
:1059D0008C93AFE4B0E0EFE4F0E0808182608C93E0
:1059E000AFE4B0E0EFE4F0E0808181608C933EC1F1
:1059F000AEE4B0E0EEE4F0E080818F7E8C93AEE424
:105A0000B0E0EEE4F0E0808188608C93AFE4B0E039
:105A1000EFE4F0E080818D7F8C93AFE4B0E0EFE4C1
:105A2000F0E080818E7F8C9321C1AEE4B0E0EEE4A3
:105A3000F0E080818F7E8C93AEE4B0E0EEE4F0E0A5
:105A4000808188608C93AFE4B0E0EFE4F0E0808187
:105A50008D7F8C93AFE4B0E0EFE4F0E08081816073
:105A60008C9304C1AEE4B0E0EEE4F0E080818F7E80
:105A70008C93AEE4B0E0EEE4F0E0808188608C933B
:105A8000AFE4B0E0EFE4F0E0808182608C93AFE4BB
:105A9000B0E0EFE4F0E080818E7F8C93E7C0AEE46D
:105AA000B0E0EEE4F0E080818F7E8C93AEE4B0E075
:105AB000EEE4F0E0808188608C93AFE4B0E0EFE446
:105AC000F0E0808182608C93AFE4B0E0EFE4F0E03E
:105AD000808181608C93CAC0AEE4B0E0EEE4F0E077
